{
  "_format": "hh-sol-artifact-1",
  "contractName": "SikhLiteratureUpgradeable",
  "sourceName": "contracts/SikhLiteratureUpgradable.sol",
  "abi": [
    {
      "inputs": [],
      "stateMutability": "nonpayable",
      "type": "constructor"
    },
    {
      "anonymous": false,
      "inputs": [
        {
          "indexed": false,
          "internalType": "address",
          "name": "previousAdmin",
          "type": "address"
        },
        {
          "indexed": false,
          "internalType": "address",
          "name": "newAdmin",
          "type": "address"
        }
      ],
      "name": "AdminChanged",
      "type": "event"
    },
    {
      "anonymous": false,
      "inputs": [
        {
          "indexed": true,
          "internalType": "address",
          "name": "beacon",
          "type": "address"
        }
      ],
      "name": "BeaconUpgraded",
      "type": "event"
    },
    {
      "anonymous": false,
      "inputs": [
        {
          "indexed": false,
          "internalType": "uint8",
          "name": "version",
          "type": "uint8"
        }
      ],
      "name": "Initialized",
      "type": "event"
    },
    {
      "anonymous": false,
      "inputs": [
        {
          "indexed": true,
          "internalType": "address",
          "name": "previousOwner",
          "type": "address"
        },
        {
          "indexed": true,
          "internalType": "address",
          "name": "newOwner",
          "type": "address"
        }
      ],
      "name": "OwnershipTransferred",
      "type": "event"
    },
    {
      "anonymous": false,
      "inputs": [
        {
          "indexed": true,
          "internalType": "uint256",
          "name": "id",
          "type": "uint256"
        },
        {
          "indexed": true,
          "internalType": "address",
          "name": "approver",
          "type": "address"
        },
        {
          "indexed": false,
          "internalType": "uint256",
          "name": "timestamp",
          "type": "uint256"
        }
      ],
      "name": "RecordApproved",
      "type": "event"
    },
    {
      "anonymous": false,
      "inputs": [
        {
          "indexed": true,
          "internalType": "uint256",
          "name": "id",
          "type": "uint256"
        },
        {
          "indexed": true,
          "internalType": "address",
          "name": "approver",
          "type": "address"
        },
        {
          "indexed": false,
          "internalType": "uint256",
          "name": "timestamp",
          "type": "uint256"
        }
      ],
      "name": "RecordRejected",
      "type": "event"
    },
    {
      "anonymous": false,
      "inputs": [
        {
          "indexed": true,
          "internalType": "uint256",
          "name": "id",
          "type": "uint256"
        },
        {
          "indexed": true,
          "internalType": "address",
          "name": "contributor",
          "type": "address"
        },
        {
          "indexed": false,
          "internalType": "string",
          "name": "title",
          "type": "string"
        },
        {
          "indexed": false,
          "internalType": "string",
          "name": "ipfsHash",
          "type": "string"
        },
        {
          "indexed": false,
          "internalType": "uint256",
          "name": "timestamp",
          "type": "uint256"
        }
      ],
      "name": "RecordSubmitted",
      "type": "event"
    },
    {
      "anonymous": false,
      "inputs": [
        {
          "indexed": true,
          "internalType": "address",
          "name": "implementation",
          "type": "address"
        }
      ],
      "name": "Upgraded",
      "type": "event"
    },
    {
      "anonymous": false,
      "inputs": [
        {
          "indexed": true,
          "internalType": "address",
          "name": "validator",
          "type": "address"
        },
        {
          "indexed": false,
          "internalType": "bool",
          "name": "enabled",
          "type": "bool"
        }
      ],
      "name": "ValidatorUpdated",
      "type": "event"
    },
    {
      "inputs": [
        {
          "internalType": "uint256",
          "name": "_id",
          "type": "uint256"
        }
      ],
      "name": "approveRecord",
      "outputs": [],
      "stateMutability": "nonpayable",
      "type": "function"
    },
    {
      "inputs": [
        {
          "internalType": "uint256",
          "name": "_id",
          "type": "uint256"
        }
      ],
      "name": "getRecord",
      "outputs": [
        {
          "internalType": "uint256",
          "name": "id",
          "type": "uint256"
        },
        {
          "internalType": "string",
          "name": "title",
          "type": "string"
        },
        {
          "internalType": "string",
          "name": "description",
          "type": "string"
        },
        {
          "internalType": "string",
          "name": "source",
          "type": "string"
        },
        {
          "internalType": "string",
          "name": "ipfsHash",
          "type": "string"
        },
        {
          "internalType": "address",
          "name": "contributor",
          "type": "address"
        },
        {
          "internalType": "uint256",
          "name": "timestamp",
          "type": "uint256"
        },
        {
          "internalType": "enum SikhLiteratureUpgradeable.Status",
          "name": "status",
          "type": "uint8"
        },
        {
          "internalType": "address",
          "name": "approver",
          "type": "address"
        }
      ],
      "stateMutability": "view",
      "type": "function"
    },
    {
      "inputs": [
        {
          "internalType": "address",
          "name": "_who",
          "type": "address"
        }
      ],
      "name": "getRecordsBySubmitter",
      "outputs": [
        {
          "internalType": "uint256[]",
          "name": "",
          "type": "uint256[]"
        }
      ],
      "stateMutability": "view",
      "type": "function"
    },
    {
      "inputs": [],
      "name": "initialize",
      "outputs": [],
      "stateMutability": "nonpayable",
      "type": "function"
    },
    {
      "inputs": [
        {
          "internalType": "address",
          "name": "",
          "type": "address"
        }
      ],
      "name": "isValidator",
      "outputs": [
        {
          "internalType": "bool",
          "name": "",
          "type": "bool"
        }
      ],
      "stateMutability": "view",
      "type": "function"
    },
    {
      "inputs": [],
      "name": "nextId",
      "outputs": [
        {
          "internalType": "uint256",
          "name": "",
          "type": "uint256"
        }
      ],
      "stateMutability": "view",
      "type": "function"
    },
    {
      "inputs": [],
      "name": "owner",
      "outputs": [
        {
          "internalType": "address",
          "name": "",
          "type": "address"
        }
      ],
      "stateMutability": "view",
      "type": "function"
    },
    {
      "inputs": [],
      "name": "proxiableUUID",
      "outputs": [
        {
          "internalType": "bytes32",
          "name": "",
          "type": "bytes32"
        }
      ],
      "stateMutability": "view",
      "type": "function"
    },
    {
      "inputs": [
        {
          "internalType": "uint256",
          "name": "",
          "type": "uint256"
        }
      ],
      "name": "records",
      "outputs": [
        {
          "internalType": "uint256",
          "name": "id",
          "type": "uint256"
        },
        {
          "internalType": "string",
          "name": "title",
          "type": "string"
        },
        {
          "internalType": "string",
          "name": "description",
          "type": "string"
        },
        {
          "internalType": "string",
          "name": "source",
          "type": "string"
        },
        {
          "internalType": "string",
          "name": "ipfsHash",
          "type": "string"
        },
        {
          "internalType": "address",
          "name": "contributor",
          "type": "address"
        },
        {
          "internalType": "uint256",
          "name": "timestamp",
          "type": "uint256"
        },
        {
          "internalType": "enum SikhLiteratureUpgradeable.Status",
          "name": "status",
          "type": "uint8"
        },
        {
          "internalType": "address",
          "name": "approver",
          "type": "address"
        }
      ],
      "stateMutability": "view",
      "type": "function"
    },
    {
      "inputs": [
        {
          "internalType": "uint256",
          "name": "_id",
          "type": "uint256"
        },
        {
          "internalType": "string",
          "name": "",
          "type": "string"
        }
      ],
      "name": "rejectRecord",
      "outputs": [],
      "stateMutability": "nonpayable",
      "type": "function"
    },
    {
      "inputs": [],
      "name": "renounceOwnership",
      "outputs": [],
      "stateMutability": "nonpayable",
      "type": "function"
    },
    {
      "inputs": [
        {
          "internalType": "address",
          "name": "_who",
          "type": "address"
        },
        {
          "internalType": "bool",
          "name": "_enabled",
          "type": "bool"
        }
      ],
      "name": "setValidator",
      "outputs": [],
      "stateMutability": "nonpayable",
      "type": "function"
    },
    {
      "inputs": [
        {
          "internalType": "string",
          "name": "_title",
          "type": "string"
        },
        {
          "internalType": "string",
          "name": "_description",
          "type": "string"
        },
        {
          "internalType": "string",
          "name": "_source",
          "type": "string"
        },
        {
          "internalType": "string",
          "name": "_ipfsHash",
          "type": "string"
        }
      ],
      "name": "submitRecord",
      "outputs": [
        {
          "internalType": "uint256",
          "name": "",
          "type": "uint256"
        }
      ],
      "stateMutability": "nonpayable",
      "type": "function"
    },
    {
      "inputs": [],
      "name": "totalRecords",
      "outputs": [
        {
          "internalType": "uint256",
          "name": "",
          "type": "uint256"
        }
      ],
      "stateMutability": "view",
      "type": "function"
    },
    {
      "inputs": [
        {
          "internalType": "address",
          "name": "newOwner",
          "type": "address"
        }
      ],
      "name": "transferOwnership",
      "outputs": [],
      "stateMutability": "nonpayable",
      "type": "function"
    },
    {
      "inputs": [
        {
          "internalType": "address",
          "name": "newImplementation",
          "type": "address"
        }
      ],
      "name": "upgradeTo",
      "outputs": [],
      "stateMutability": "nonpayable",
      "type": "function"
    },
    {
      "inputs": [
        {
          "internalType": "address",
          "name": "newImplementation",
          "type": "address"
        },
        {
          "internalType": "bytes",
          "name": "data",
          "type": "bytes"
        }
      ],
      "name": "upgradeToAndCall",
      "outputs": [],
      "stateMutability": "payable",
      "type": "function"
    }
  ],
  "bytecode": "0x60a06040523060805234801561001457600080fd5b5061001d610022565b6100e1565b600054610100900460ff161561008e5760405162461bcd60e51b815260206004820152602760248201527f496e697469616c697a61626c653a20636f6e747261637420697320696e697469604482015266616c697a696e6760c81b606482015260840160405180910390fd5b60005460ff908116146100df576000805460ff191660ff9081179091556040519081527f7f26b83ff96e1f2b6a682f133852f6798a09c465da95921460cefb38474024989060200160405180910390a15b565b608051611f3f610118600039600081816109590152818161099901528181610a9f01528181610adf0152610b720152611f3f6000f3fe6080604052600436106100fe5760003560e01c8063715018a6116100955780639710c8ad116100645780639710c8ad14610276578063a9c3be69146102a3578063ed07c493146102c3578063f2fde38b146102e3578063facd743b1461030357600080fd5b8063715018a6146102045780638129fc1c146102195780638da5cb5b1461022e578063918c0c431461025657600080fd5b80634623c91d116100d15780634623c91d146101a65780634f1ef286146101c657806352d1902d146101d957806361b8ce8c146101ee57600080fd5b806303e9e60914610103578063125f89741461014157806334461067146101645780633659cfe614610184575b600080fd5b34801561010f57600080fd5b5061012361011e366004611765565b610343565b604051610138999897969594939291906117e4565b60405180910390f35b34801561014d57600080fd5b506101566106c1565b604051908152602001610138565b34801561017057600080fd5b5061012361017f366004611765565b6106d7565b34801561019057600080fd5b506101a461019f3660046118b7565b61094f565b005b3480156101b257600080fd5b506101a46101c13660046118d2565b610a2e565b6101a46101d4366004611924565b610a95565b3480156101e557600080fd5b50610156610b65565b3480156101fa57600080fd5b5061015660c95481565b34801561021057600080fd5b506101a4610c18565b34801561022557600080fd5b506101a4610c2c565b34801561023a57600080fd5b506033546040516001600160a01b039091168152602001610138565b34801561026257600080fd5b506101a4610271366004611765565b610d49565b34801561028257600080fd5b506102966102913660046118b7565b610e44565b60405161013891906119e6565b3480156102af57600080fd5b506101566102be366004611a73565b610eb0565b3480156102cf57600080fd5b506101a46102de366004611b37565b611009565b3480156102ef57600080fd5b506101a46102fe3660046118b7565b611165565b34801561030f57600080fd5b5061033361031e3660046118b7565b60cc6020526000908152604090205460ff1681565b6040519015158152602001610138565b600060608060608060008060008061035a8a6111db565b61037f5760405162461bcd60e51b815260040161037690611b83565b60405180910390fd5b600060ca60008c815260200190815260200160002060405180610120016040529081600082015481526020016001820180546103ba90611ba7565b80601f01602080910402602001604051908101604052809291908181526020018280546103e690611ba7565b80156104335780601f1061040857610100808354040283529160200191610433565b820191906000526020600020905b81548152906001019060200180831161041657829003601f168201915b5050505050815260200160028201805461044c90611ba7565b80601f016020809104026020016040519081016040528092919081815260200182805461047890611ba7565b80156104c55780601f1061049a576101008083540402835291602001916104c5565b820191906000526020600020905b8154815290600101906020018083116104a857829003601f168201915b505050505081526020016003820180546104de90611ba7565b80601f016020809104026020016040519081016040528092919081815260200182805461050a90611ba7565b80156105575780601f1061052c57610100808354040283529160200191610557565b820191906000526020600020905b81548152906001019060200180831161053a57829003601f168201915b5050505050815260200160048201805461057090611ba7565b80601f016020809104026020016040519081016040528092919081815260200182805461059c90611ba7565b80156105e95780601f106105be576101008083540402835291602001916105e9565b820191906000526020600020905b8154815290600101906020018083116105cc57829003601f168201915b505050918352505060058201546001600160a01b0316602082015260068201546040820152600782015460609091019060ff16600281111561062d5761062d6117ce565b600281111561063e5761063e6117ce565b81526020016007820160019054906101000a90046001600160a01b03166001600160a01b03166001600160a01b0316815250509050806000015181602001518260400151836060015184608001518560a001518660c001518760e00151886101000151995099509950995099509950995099509950509193959799909294969850565b6000600160c9546106d29190611bf7565b905090565b60ca60205260009081526040902080546001820180549192916106f990611ba7565b80601f016020809104026020016040519081016040528092919081815260200182805461072590611ba7565b80156107725780601f1061074757610100808354040283529160200191610772565b820191906000526020600020905b81548152906001019060200180831161075557829003601f168201915b50505050509080600201805461078790611ba7565b80601f01602080910402602001604051908101604052809291908181526020018280546107b390611ba7565b80156108005780601f106107d557610100808354040283529160200191610800565b820191906000526020600020905b8154815290600101906020018083116107e357829003601f168201915b50505050509080600301805461081590611ba7565b80601f016020809104026020016040519081016040528092919081815260200182805461084190611ba7565b801561088e5780601f106108635761010080835404028352916020019161088e565b820191906000526020600020905b81548152906001019060200180831161087157829003601f168201915b5050505050908060040180546108a390611ba7565b80601f01602080910402602001604051908101604052809291908181526020018280546108cf90611ba7565b801561091c5780601f106108f15761010080835404028352916020019161091c565b820191906000526020600020905b8154815290600101906020018083116108ff57829003601f168201915b5050506005840154600685015460079095015493946001600160a01b039182169490935060ff8116925061010090041689565b6001600160a01b037f00000000000000000000000000000000000000000000000000000000000000001630036109975760405162461bcd60e51b815260040161037690611c0a565b7f00000000000000000000000000000000000000000000000000000000000000006001600160a01b03166109e0600080516020611ec3833981519152546001600160a01b031690565b6001600160a01b031614610a065760405162461bcd60e51b815260040161037690611c56565b610a0f816111f3565b60408051600080825260208201909252610a2b918391906111fb565b50565b610a3661136b565b6001600160a01b038216600081815260cc6020908152604091829020805460ff191685151590811790915591519182527f763b63b30e91c843bb39e4379603697003d3b7c1f192619cd782fa33bdc44396910160405180910390a25050565b6001600160a01b037f0000000000000000000000000000000000000000000000000000000000000000163003610add5760405162461bcd60e51b815260040161037690611c0a565b7f00000000000000000000000000000000000000000000000000000000000000006001600160a01b0316610b26600080516020611ec3833981519152546001600160a01b031690565b6001600160a01b031614610b4c5760405162461bcd60e51b815260040161037690611c56565b610b55826111f3565b610b61828260016111fb565b5050565b6000306001600160a01b037f00000000000000000000000000000000000000000000000000000000000000001614610c055760405162461bcd60e51b815260206004820152603860248201527f555550535570677261646561626c653a206d757374206e6f742062652063616c60448201527f6c6564207468726f7567682064656c656761746563616c6c00000000000000006064820152608401610376565b50600080516020611ec383398151915290565b610c2061136b565b610c2a60006113c5565b565b600054610100900460ff1615808015610c4c5750600054600160ff909116105b80610c665750303b158015610c66575060005460ff166001145b610cc95760405162461bcd60e51b815260206004820152602e60248201527f496e697469616c697a61626c653a20636f6e747261637420697320616c72656160448201526d191e481a5b9a5d1a585b1a5e995960921b6064820152608401610376565b6000805460ff191660011790558015610cec576000805461ff0019166101001790555b610cf4611417565b610cfc611446565b600160c9558015610a2b576000805461ff0019169055604051600181527f7f26b83ff96e1f2b6a682f133852f6798a09c465da95921460cefb38474024989060200160405180910390a150565b6033546001600160a01b0316331480610d71575033600090815260cc602052604090205460ff165b610db45760405162461bcd60e51b815260206004820152601460248201527327b7363c903b30b634b230ba37b917b7bbb732b960611b6044820152606401610376565b610dbd816111db565b610dd95760405162461bcd60e51b815260040161037690611b83565b600081815260ca602052604081206007015460ff166002811115610dff57610dff6117ce565b14610e3a5760405162461bcd60e51b815260206004820152600b60248201526a4e6f742070656e64696e6760a81b6044820152606401610376565b610a2b813361146d565b6001600160a01b038116600090815260cb6020908152604091829020805483518184028101840190945280845260609392830182828015610ea457602002820191906000526020600020905b815481526020019060010190808311610e90575b50505050509050919050565b60c9805460009182919082610ec483611ca2565b90915550600081815260ca6020526040902081815590915060018101610eeb8b8d83611d0b565b5060028101610efb898b83611d0b565b5060038101610f0b878983611d0b565b5060048101610f1b858783611d0b565b506005810180546001600160a01b031916331790554260068201556007810180546000919060ff19166001830217905550600781018054610100600160a81b031916905533600081815260cb60209081526040808320805460018101825590845291909220018490555183907f94cf8a215b164e8729f06294843df27be1382480b0ca39c65b3dfcbd3bece0b690610fbc908f908f908b908b904290611df5565b60405180910390a36033546001600160a01b0316331480610fec575033600090815260cc602052604090205460ff165b15610ffb57610ffb823361146d565b509998505050505050505050565b6033546001600160a01b0316331480611031575033600090815260cc602052604090205460ff165b6110745760405162461bcd60e51b815260206004820152601460248201527327b7363c903b30b634b230ba37b917b7bbb732b960611b6044820152606401610376565b61107d836111db565b6110995760405162461bcd60e51b815260040161037690611b83565b600083815260ca602052604081206007015460ff1660028111156110bf576110bf6117ce565b146110fa5760405162461bcd60e51b815260206004820152600b60248201526a4e6f742070656e64696e6760a81b6044820152606401610376565b600083815260ca60209081526040918290206007018054610100339081026001600160a81b031990921691909117600217909155915142815285917f1aec4dcaa3f7d02a95fde9140103d6e59a2cf3f52387b819fcf9f038f06ffead910160405180910390a3505050565b61116d61136b565b6001600160a01b0381166111d25760405162461bcd60e51b815260206004820152602660248201527f4f776e61626c653a206e6577206f776e657220697320746865207a65726f206160448201526564647265737360d01b6064820152608401610376565b610a2b816113c5565b600080821180156111ed575060c95482105b92915050565b610a2b61136b565b7f4910fdfa16fed3260ed0e7147f7cc6da11a60208b5b9406d12a635614ffd91435460ff16156112335761122e836114df565b505050565b826001600160a01b03166352d1902d6040518163ffffffff1660e01b8152600401602060405180830381865afa92505050801561128d575060408051601f3d908101601f1916820190925261128a91810190611e2f565b60015b6112f05760405162461bcd60e51b815260206004820152602e60248201527f45524331393637557067726164653a206e657720696d706c656d656e7461746960448201526d6f6e206973206e6f74205555505360901b6064820152608401610376565b600080516020611ec3833981519152811461135f5760405162461bcd60e51b815260206004820152602960248201527f45524331393637557067726164653a20756e737570706f727465642070726f786044820152681a58589b195555525160ba1b6064820152608401610376565b5061122e83838361157b565b6033546001600160a01b03163314610c2a5760405162461bcd60e51b815260206004820181905260248201527f4f776e61626c653a2063616c6c6572206973206e6f7420746865206f776e65726044820152606401610376565b603380546001600160a01b038381166001600160a01b0319831681179093556040519116919082907f8be0079c531659141344cd1fd0a4f28419497f9722a3daafe3b4186f6b6457e090600090a35050565b600054610100900460ff1661143e5760405162461bcd60e51b815260040161037690611e48565b610c2a6115a6565b600054610100900460ff16610c2a5760405162461bcd60e51b815260040161037690611e48565b600082815260ca602090815260409182902060070180546001600160a01b03851661010081026001600160a81b031990921691909117600117909155915142815284917f3373ea46c658a2840c60a440dffb4600601dc8006954a31cf65f3dc1724b90eb910160405180910390a35050565b6001600160a01b0381163b61154c5760405162461bcd60e51b815260206004820152602d60248201527f455243313936373a206e657720696d706c656d656e746174696f6e206973206e60448201526c1bdd08184818dbdb9d1c9858dd609a1b6064820152608401610376565b600080516020611ec383398151915280546001600160a01b0319166001600160a01b0392909216919091179055565b611584836115d6565b6000825111806115915750805b1561122e576115a08383611616565b50505050565b600054610100900460ff166115cd5760405162461bcd60e51b815260040161037690611e48565b610c2a336113c5565b6115df816114df565b6040516001600160a01b038216907fbc7cd75a20ee27fd9adebab32041f755214dbc6bffa90cc0225b39da2e5c2d3b90600090a250565b606061163b8383604051806060016040528060278152602001611ee360279139611642565b9392505050565b6060600080856001600160a01b03168560405161165f9190611e93565b600060405180830381855af49150503d806000811461169a576040519150601f19603f3d011682016040523d82523d6000602084013e61169f565b606091505b50915091506116b0868383876116ba565b9695505050505050565b60608315611729578251600003611722576001600160a01b0385163b6117225760405162461bcd60e51b815260206004820152601d60248201527f416464726573733a2063616c6c20746f206e6f6e2d636f6e74726163740000006044820152606401610376565b5081611733565b611733838361173b565b949350505050565b81511561174b5781518083602001fd5b8060405162461bcd60e51b81526004016103769190611eaf565b60006020828403121561177757600080fd5b5035919050565b60005b83811015611799578181015183820152602001611781565b50506000910152565b600081518084526117ba81602086016020860161177e565b601f01601f19169290920160200192915050565b634e487b7160e01b600052602160045260246000fd5b60006101208b83528060208401526117fe8184018c6117a2565b90508281036040840152611812818b6117a2565b90508281036060840152611826818a6117a2565b9050828103608084015261183a81896117a2565b6001600160a01b03881660a085015260c084018790529150506003841061187157634e487b7160e01b600052602160045260246000fd5b8360e083015261188d6101008301846001600160a01b03169052565b9a9950505050505050505050565b80356001600160a01b03811681146118b257600080fd5b919050565b6000602082840312156118c957600080fd5b61163b8261189b565b600080604083850312156118e557600080fd5b6118ee8361189b565b91506020830135801515811461190357600080fd5b809150509250929050565b634e487b7160e01b600052604160045260246000fd5b6000806040838503121561193757600080fd5b6119408361189b565b9150602083013567ffffffffffffffff8082111561195d57600080fd5b818501915085601f83011261197157600080fd5b8135818111156119835761198361190e565b604051601f8201601f19908116603f011681019083821181831017156119ab576119ab61190e565b816040528281528860208487010111156119c457600080fd5b8260208601602083013760006020848301015280955050505050509250929050565b6020808252825182820181905260009190848201906040850190845b81811015611a1e57835183529284019291840191600101611a02565b50909695505050505050565b60008083601f840112611a3c57600080fd5b50813567ffffffffffffffff811115611a5457600080fd5b602083019150836020828501011115611a6c57600080fd5b9250929050565b6000806000806000806000806080898b031215611a8f57600080fd5b883567ffffffffffffffff80821115611aa757600080fd5b611ab38c838d01611a2a565b909a50985060208b0135915080821115611acc57600080fd5b611ad88c838d01611a2a565b909850965060408b0135915080821115611af157600080fd5b611afd8c838d01611a2a565b909650945060608b0135915080821115611b1657600080fd5b50611b238b828c01611a2a565b999c989b5096995094979396929594505050565b600080600060408486031215611b4c57600080fd5b83359250602084013567ffffffffffffffff811115611b6a57600080fd5b611b7686828701611a2a565b9497909650939450505050565b6020808252600a90820152694e6f742065786973747360b01b604082015260600190565b600181811c90821680611bbb57607f821691505b602082108103611bdb57634e487b7160e01b600052602260045260246000fd5b50919050565b634e487b7160e01b600052601160045260246000fd5b818103818111156111ed576111ed611be1565b6020808252602c908201527f46756e6374696f6e206d7573742062652063616c6c6564207468726f7567682060408201526b19195b1959d85d1958d85b1b60a21b606082015260800190565b6020808252602c908201527f46756e6374696f6e206d7573742062652063616c6c6564207468726f7567682060408201526b6163746976652070726f787960a01b606082015260800190565b600060018201611cb457611cb4611be1565b5060010190565b601f82111561122e576000816000526020600020601f850160051c81016020861015611ce45750805b601f850160051c820191505b81811015611d0357828155600101611cf0565b505050505050565b67ffffffffffffffff831115611d2357611d2361190e565b611d3783611d318354611ba7565b83611cbb565b6000601f841160018114611d6b5760008515611d535750838201355b600019600387901b1c1916600186901b178355611dc5565b600083815260209020601f19861690835b82811015611d9c5786850135825560209485019460019092019101611d7c565b5086821015611db95760001960f88860031b161c19848701351681555b505060018560011b0183555b5050505050565b81835281816020850137506000828201602090810191909152601f909101601f19169091010190565b606081526000611e09606083018789611dcc565b8281036020840152611e1c818688611dcc565b9150508260408301529695505050505050565b600060208284031215611e4157600080fd5b5051919050565b6020808252602b908201527f496e697469616c697a61626c653a20636f6e7472616374206973206e6f74206960408201526a6e697469616c697a696e6760a81b606082015260800190565b60008251611ea581846020870161177e565b9190910192915050565b60208152600061163b60208301846117a256fe360894a13ba1a3210667c828492db98dca3e2076cc3735a920a3ca505d382bbc416464726573733a206c6f772d6c6576656c2064656c65676174652063616c6c206661696c6564a26469706673582212209237eb69805dc9c85cd0d81f12d39c6e1c608f829febdb5bfdc7bea9b39f1ac464736f6c63430008180033",
  "linkReferences": {},
  "deployedLinkReferences": {}
}